{
  "contractName": "DEX",
  "abi": [
    {
      "constant": false,
      "inputs": [
        {
          "internalType": "address",
          "name": "_basicToken",
          "type": "address"
        },
        {
          "internalType": "address",
          "name": "_token",
          "type": "address"
        },
        {
          "internalType": "uint256",
          "name": "_price",
          "type": "uint256"
        },
        {
          "internalType": "uint256",
          "name": "_amount",
          "type": "uint256"
        },
        {
          "internalType": "bool",
          "name": "_isBuy",
          "type": "bool"
        }
      ],
      "name": "executeLimitOrder",
      "outputs": [],
      "payable": false,
      "stateMutability": "nonpayable",
      "type": "function"
    },
    {
      "constant": false,
      "inputs": [
        {
          "internalType": "address",
          "name": "_token",
          "type": "address"
        },
        {
          "internalType": "bool",
          "name": "_isSell",
          "type": "bool"
        },
        {
          "internalType": "uint256",
          "name": "_price",
          "type": "uint256"
        },
        {
          "internalType": "uint256",
          "name": "amountLeftToTrade",
          "type": "uint256"
        },
        {
          "internalType": "address",
          "name": "_sender",
          "type": "address"
        }
      ],
      "name": "storeOrder",
      "outputs": [],
      "payable": false,
      "stateMutability": "nonpayable",
      "type": "function"
    },
    {
      "constant": false,
      "inputs": [
        {
          "internalType": "address",
          "name": "_token",
          "type": "address"
        },
        {
          "internalType": "bool",
          "name": "_isSell",
          "type": "bool"
        },
        {
          "internalType": "uint256",
          "name": "_price",
          "type": "uint256"
        },
        {
          "internalType": "uint256",
          "name": "_amount",
          "type": "uint256"
        }
      ],
      "name": "removeOrder",
      "outputs": [],
      "payable": false,
      "stateMutability": "nonpayable",
      "type": "function"
    },
    {
      "constant": true,
      "inputs": [
        {
          "internalType": "address",
          "name": "user",
          "type": "address"
        },
        {
          "internalType": "address",
          "name": "_tokenAddress",
          "type": "address"
        }
      ],
      "name": "getTokenBalance",
      "outputs": [
        {
          "internalType": "uint256",
          "name": "",
          "type": "uint256"
        }
      ],
      "payable": false,
      "stateMutability": "view",
      "type": "function"
    },
    {
      "constant": false,
      "inputs": [
        {
          "internalType": "uint256",
          "name": "numTokens",
          "type": "uint256"
        }
      ],
      "name": "test",
      "outputs": [],
      "payable": false,
      "stateMutability": "nonpayable",
      "type": "function"
    }
  ],
  "bytecode": "0x608060405234801561001057600080fd5b5061129b806100206000396000f3fe608060405234801561001057600080fd5b50600436106100575760003560e01c806329e99f071461005c5780634d2ca3c41461008a57806371d231101461010e578063c489744b14610172578063dc7008c4146101ea575b600080fd5b6100886004803603602081101561007257600080fd5b810190808035906020019092919050505061026e565b005b61010c600480360360a08110156100a057600080fd5b81019080803573ffffffffffffffffffffffffffffffffffffffff1690602001909291908035151590602001909291908035906020019092919080359060200190929190803573ffffffffffffffffffffffffffffffffffffffff169060200190929190505050610271565b005b6101706004803603608081101561012457600080fd5b81019080803573ffffffffffffffffffffffffffffffffffffffff1690602001909291908035151590602001909291908035906020019092919080359060200190929190505050610278565b005b6101d46004803603604081101561018857600080fd5b81019080803573ffffffffffffffffffffffffffffffffffffffff169060200190929190803573ffffffffffffffffffffffffffffffffffffffff16906020019092919050505061027e565b6040518082815260200191505060405180910390f35b61026c600480360360a081101561020057600080fd5b81019080803573ffffffffffffffffffffffffffffffffffffffff169060200190929190803573ffffffffffffffffffffffffffffffffffffffff1690602001909291908035906020019092919080359060200190929190803515159060200190929190505050610345565b005b50565b5050505050565b50505050565b6000808290508073ffffffffffffffffffffffffffffffffffffffff166370a08231856040518263ffffffff1660e01b8152600401808273ffffffffffffffffffffffffffffffffffffffff1673ffffffffffffffffffffffffffffffffffffffff16815260200191505060206040518083038186803b15801561030157600080fd5b505afa158015610315573d6000803e3d6000fd5b505050506040513d602081101561032b57600080fd5b810190808051906020019092919050505091505092915050565b60008060008673ffffffffffffffffffffffffffffffffffffffff1673ffffffffffffffffffffffffffffffffffffffff16815260200190815260200160002090506103ae6103e86103a08587610f4490919063ffffffff16565b610fca90919063ffffffff16565b6103b8338861027e565b101561040f576040517f08c379a00000000000000000000000000000000000000000000000000000000081526004018080602001828103825260338152602001806112136033913960400191505060405180910390fd5b600082610450578160010160007f62757900000000000000000000000000000000000000000000000000000000008152602001908152602001600020610486565b8160010160007f73656c6c0000000000000000000000000000000000000000000000000000000081526020019081526020016000205b90508280156104985750806001015485105b806104b05750821580156104af5750806001015485115b5b806104bf575060008160030154145b156104d3576104d2868415878733610271565b5b600087905060008790506000809050600087905060008560010154905060005b600082141580156105045750600083115b15610f35578880156105155750818b105b806105295750881580156105285750818b115b5b156105415761053c8c8a158d8633610271565b610f35565b8660000160008381526020019081526020016000206002015490505b8660000160008381526020019081526020016000206003015481141580156105855750600083115b15610f29578287600001600084815260200190815260200160002060010160008381526020019081526020016000206000015411610a2f576106106103e8610602848a6000016000878152602001908152602001600020600101600086815260200190815260200160002060000154610f4490919063ffffffff16565b610fca90919063ffffffff16565b93508361061d338f61027e565b1015610674576040517f08c379a000000000000000000000000000000000000000000000000000000000815260040180806020018281038252602e8152602001806111e5602e913960400191505060405180910390fd5b8573ffffffffffffffffffffffffffffffffffffffff166323b872dd33896000016000868152602001908152602001600020600101600085815260200190815260200160002060010160009054906101000a900473ffffffffffffffffffffffffffffffffffffffff16876040518463ffffffff1660e01b8152600401808473ffffffffffffffffffffffffffffffffffffffff1673ffffffffffffffffffffffffffffffffffffffff1681526020018373ffffffffffffffffffffffffffffffffffffffff1673ffffffffffffffffffffffffffffffffffffffff1681526020018281526020019350505050602060405180830381600087803b15801561077b57600080fd5b505af115801561078f573d6000803e3d6000fd5b505050506040513d60208110156107a557600080fd5b8101908080519060200190929190505050508473ffffffffffffffffffffffffffffffffffffffff166323b872dd886000016000858152602001908152602001600020600101600084815260200190815260200160002060010160009054906101000a900473ffffffffffffffffffffffffffffffffffffffff16338a60000160008781526020019081526020016000206001016000868152602001908152602001600020600001546040518463ffffffff1660e01b8152600401808473ffffffffffffffffffffffffffffffffffffffff1673ffffffffffffffffffffffffffffffffffffffff1681526020018373ffffffffffffffffffffffffffffffffffffffff1673ffffffffffffffffffffffffffffffffffffffff1681526020018281526020019350505050602060405180830381600087803b1580156108ea57600080fd5b505af11580156108fe573d6000803e3d6000fd5b505050506040513d602081101561091457600080fd5b810190808051906020019092919050505050600087600001600084815260200190815260200160002060010160008381526020019081526020016000206000018190555061098460018860000160008581526020019081526020016000206004015461101490919063ffffffff16565b8760000160008481526020019081526020016000206004018190555086600001600083815260200190815260200160002060010160008281526020019081526020016000206003015487600001600084815260200190815260200160002060020181905550610a288760000160008481526020019081526020016000206001016000838152602001908152602001600020600001548461101490919063ffffffff16565b9250610db4565b610a566103e8610a488486610f4490919063ffffffff16565b610fca90919063ffffffff16565b935083610a63338f61027e565b1015610aba576040517f08c379a000000000000000000000000000000000000000000000000000000000815260040180806020018281038252602e8152602001806111e5602e913960400191505060405180910390fd5b8573ffffffffffffffffffffffffffffffffffffffff166323b872dd33896000016000868152602001908152602001600020600101600085815260200190815260200160002060010160009054906101000a900473ffffffffffffffffffffffffffffffffffffffff16876040518463ffffffff1660e01b8152600401808473ffffffffffffffffffffffffffffffffffffffff1673ffffffffffffffffffffffffffffffffffffffff1681526020018373ffffffffffffffffffffffffffffffffffffffff1673ffffffffffffffffffffffffffffffffffffffff1681526020018281526020019350505050602060405180830381600087803b158015610bc157600080fd5b505af1158015610bd5573d6000803e3d6000fd5b505050506040513d6020811015610beb57600080fd5b8101908080519060200190929190505050508473ffffffffffffffffffffffffffffffffffffffff166323b872dd886000016000858152602001908152602001600020600101600084815260200190815260200160002060010160009054906101000a900473ffffffffffffffffffffffffffffffffffffffff1633866040518463ffffffff1660e01b8152600401808473ffffffffffffffffffffffffffffffffffffffff1673ffffffffffffffffffffffffffffffffffffffff1681526020018373ffffffffffffffffffffffffffffffffffffffff1673ffffffffffffffffffffffffffffffffffffffff1681526020018281526020019350505050602060405180830381600087803b158015610d0457600080fd5b505af1158015610d18573d6000803e3d6000fd5b505050506040513d6020811015610d2e57600080fd5b810190808051906020019092919050505050610d7f8388600001600085815260200190815260200160002060010160008481526020019081526020016000206000015461101490919063ffffffff16565b876000016000848152602001908152602001600020600101600083815260200190815260200160002060000181905550600092505b8660000160008381526020019081526020016000206003015481148015610e0757506000876000016000848152602001908152602001600020600101600083815260200190815260200160002060000154145b15610ef557610e246001886003015461101490919063ffffffff16565b876003018190555060008760000160008481526020019081526020016000206004018190555086600001600083815260200190815260200160002060000154821480610e885750600087600001600084815260200190815260200160002060000154145b15610ece57600087600001600084815260200190815260200160002060000181905550600087600301819055506000876001018190555060008760020181905550610ef0565b8660000160008381526020019081526020016000206000015487600101819055505b610f29565b866000016000838152602001908152602001600020600101600082815260200190815260200160002060030154905061055d565b866001015491506104f3565b50505050505050505050505050565b600080831415610f575760009050610fc4565b6000828402905082848281610f6857fe5b0414610fbf576040517f08c379a00000000000000000000000000000000000000000000000000000000081526004018080602001828103825260218152602001806112466021913960400191505060405180910390fd5b809150505b92915050565b600061100c83836040518060400160405280601a81526020017f536166654d6174683a206469766973696f6e206279207a65726f00000000000081525061105e565b905092915050565b600061105683836040518060400160405280601e81526020017f536166654d6174683a207375627472616374696f6e206f766572666c6f770000815250611124565b905092915050565b6000808311829061110a576040517f08c379a00000000000000000000000000000000000000000000000000000000081526004018080602001828103825283818151815260200191508051906020019080838360005b838110156110cf5780820151818401526020810190506110b4565b50505050905090810190601f1680156110fc5780820380516001836020036101000a031916815260200191505b509250505060405180910390fd5b50600083858161111657fe5b049050809150509392505050565b60008383111582906111d1576040517f08c379a00000000000000000000000000000000000000000000000000000000081526004018080602001828103825283818151815260200191508051906020019080838360005b8381101561119657808201518184015260208101905061117b565b50505050905090810190601f1680156111c35780820380516001836020036101000a031916815260200191505b509250505060405180910390fd5b506000838503905080915050939250505056fe657865637574654c696d69744f726465723a20696e73756666696369656e742065746865722062616c616e63652e657865637574654c696d69744f726465723a2074686520574554482062616c616e6365203c204554482072657175697265642e536166654d6174683a206d756c7469706c69636174696f6e206f766572666c6f77a265627a7a72315820b73d23e48edfd36c5e68664b2f65bbc47a67da6301772d163d35cf7915a66c6f64736f6c63430005100032",
  "source": "pragma solidity >=0.4.22 <0.8.0;\n\nimport \"../utils/SafeMath.sol\";\nimport \"./ERC20API.sol\";\n\ncontract DEX {\n    using SafeMath for uint256;\n\n    struct Offer {\n        uint256 offer_amount;\n        address offer_maker;\n        uint256 higher_priority;\n        uint256 lower_priority;\n    }\n\n    struct OfferLinkedList {\n        uint256 next_price;\n        // 1. when the buy order comes in, we will be traversing the sell book,\n        //      from low to high: because the buyer is looking for prices as low as possible to buy\n        // 2. when the sell order comes in, we will be traversing the buy book,\n        //      from high to low: because the seller is looking for prices as high as possible to sell.\n        mapping(uint256 => Offer) offer_list;\n        uint256 highest_priority;\n        uint256 lowest_priority;\n        uint256 offer_length;\n    }\n\n    struct Token {\n        address token_contract;\n        mapping(bytes32 => OrderBook) Book;\n    }\n\n    struct OrderBook {\n        mapping(uint256 => OfferLinkedList) prices;\n        uint256 first_price;\n        uint256 last_price;\n        // 1. for the sell order book:\n        //      first_price -> min price\n        //      last_price -> max price\n        // 2. for the buy order book:\n        //      first_price -> max price\n        //      last_price -> min price\n        uint256 number_of_prices;\n    }\n\n    mapping(address => Token) token_list;\n\n    mapping(address => uint256) ether_balance;\n\n    mapping(address => string[]) token_address_list;\n\n    function executeLimitOrder (\n        address _basicToken,\n        address _token,\n        uint256 _price,\n        uint256 _amount,\n        bool _isBuy\n    ) public {\n\n        Token storage currentToken = token_list[_token]; // find the desired Token object.\n\n        require(\n            getTokenBalance(msg.sender, _basicToken) >= (_price.mul(_amount)).div(1e3),\n            \"executeLimitOrder: the WETH balance < ETH required.\"\n        );\n\n        OrderBook storage orderBook = (_isBuy ? currentToken.Book[\"sell\"]:currentToken.Book[\"buy\"]);\n        // choose the desired order book: buy -> sell order book; sell -> buy order book\n\n        // check if the proposed order price is able to match any order price\n        if (\n            (_isBuy && _price < orderBook.first_price) || // buy order price smaller than minimum sell price\n            (!_isBuy && _price > orderBook.first_price) || // sell order price higher than maximum buy price\n            orderBook.number_of_prices == 0 // there is no order to match.\n        ) storeOrder(_token, !_isBuy, _price, _amount, msg.sender); // store the order and delay its execution\n\n        ERC20API basicToken = ERC20API(_basicToken);\n        ERC20API desiredToken = ERC20API(_token);\n        uint256 totalEtherToTrade = 0;\n        uint256 amountLeftToTrade = _amount;\n        uint256 currentTradePrice = orderBook.first_price;\n        uint256 offerPtr;\n\n        while (currentTradePrice != 0 && amountLeftToTrade > 0){\n            if ((_isBuy && _price < currentTradePrice) || (!_isBuy && _price > currentTradePrice)) {\n                storeOrder(_token, !_isBuy, _price, amountLeftToTrade, msg.sender);\n                break;\n            }\n            offerPtr = orderBook.prices[currentTradePrice].highest_priority; // initiate the helper offer pointer to traverse the price node.\n            while (offerPtr != orderBook.prices[currentTradePrice].lowest_priority\n                && amountLeftToTrade > 0) {\n\n                if (orderBook.prices[currentTradePrice].offer_list[offerPtr].offer_amount <= amountLeftToTrade){\n\n                    totalEtherToTrade = ((orderBook.prices[currentTradePrice].offer_list[offerPtr].offer_amount).mul(currentTradePrice)).div(1e3);\n\n                    require(\n                        getTokenBalance(msg.sender, _basicToken) >= totalEtherToTrade,\n                        \"executeLimitOrder: insufficient ether balance.\"\n                    );\n\n                    basicToken.transferFrom(\n                        msg.sender,\n                        orderBook.prices[currentTradePrice].offer_list[offerPtr].offer_maker,\n                        totalEtherToTrade\n                    );\n\n                    desiredToken.transferFrom(\n                        orderBook.prices[currentTradePrice].offer_list[offerPtr].offer_maker,\n                        msg.sender,\n                        orderBook.prices[currentTradePrice].offer_list[offerPtr].offer_amount\n                    );\n\n                    orderBook.prices[currentTradePrice].offer_list[offerPtr].offer_amount = 0;\n                    orderBook.prices[currentTradePrice].offer_length = orderBook.prices[currentTradePrice].offer_length.sub(1);\n                    orderBook.prices[currentTradePrice].highest_priority = orderBook.prices[currentTradePrice].offer_list[offerPtr].lower_priority;\n                    amountLeftToTrade = amountLeftToTrade.sub(orderBook.prices[currentTradePrice].offer_list[offerPtr].offer_amount);\n                    //removeOrder(_basicToken, _token, !_isBuy, currentTradePrice);\n                } else {\n                    totalEtherToTrade = (amountLeftToTrade.mul(currentTradePrice)).div(1e3);\n\n                    require(\n                        getTokenBalance(msg.sender, _basicToken) >= totalEtherToTrade,\n                        \"executeLimitOrder: insufficient ether balance.\"\n                    );\n\n                    basicToken.transferFrom(\n                        msg.sender,\n                        orderBook.prices[currentTradePrice].offer_list[offerPtr].offer_maker,\n                        totalEtherToTrade\n                    );\n\n                    desiredToken.transferFrom(\n                        orderBook.prices[currentTradePrice].offer_list[offerPtr].offer_maker,\n                        msg.sender,\n                        amountLeftToTrade\n                    );\n\n                    orderBook.prices[currentTradePrice].offer_list[offerPtr].offer_amount =\n                        orderBook.prices[currentTradePrice].offer_list[offerPtr].offer_amount.sub(amountLeftToTrade);\n                    amountLeftToTrade = 0;\n                }\n\n                if (offerPtr == orderBook.prices[currentTradePrice].lowest_priority &&\n                    orderBook.prices[currentTradePrice].offer_list[offerPtr].offer_amount == 0\n                ) {\n                    orderBook.number_of_prices = orderBook.number_of_prices.sub(1);\n                    orderBook.prices[currentTradePrice].offer_length = 0;\n\n                    if (\n                        currentTradePrice == orderBook.prices[currentTradePrice].next_price ||\n                        orderBook.prices[currentTradePrice].next_price == 0\n                    ) {\n                        orderBook.prices[currentTradePrice].next_price = 0;\n                        orderBook.number_of_prices = 0;\n                        orderBook.first_price = 0;\n                        orderBook.last_price = 0;\n                    } else {\n                        orderBook.first_price = orderBook.prices[currentTradePrice].next_price;\n                    }\n                    break;\n                }\n                offerPtr = orderBook.prices[currentTradePrice].offer_list[offerPtr].lower_priority;\n            }\n            currentTradePrice = orderBook.first_price;\n        }\n    }\n\n    function storeOrder(address _token, bool _isSell, uint256 _price, uint256 amountLeftToTrade, address _sender) public {\n\n    }\n\n    function removeOrder(address _token, bool _isSell, uint256 _price, uint256 _amount) public {\n\n    }\n\n\n    function getTokenBalance(address user, address _tokenAddress) public view returns(uint256) {\n        ERC20API tokenLoaded = ERC20API(_tokenAddress);\n        return tokenLoaded.balanceOf(user);\n    }\n\n    function test(uint256 numTokens) public {\n        //return true;\n    }\n}\n",
  "sourcePath": "/Users/ziyuanye/Desktop/CZ4153/contracts/DEX.sol",
  "compiler": {
    "name": "solc",
    "version": "0.5.16+commit.9c3226ce.Emscripten.clang"
  },
  "schemaVersion": "3.4.10",
  "updatedAt": "2022-10-25T12:51:06.083Z",
  "networkType": "ethereum",
  "devdoc": {
    "methods": {}
  },
  "userdoc": {
    "methods": {}
  }
}